:020000040000FA
:200000000203370218034100C4002202180B222222FFFF021813E4FFA10EFF02181B75C8A7
:200020000122FF021823FFFFFFFFFF02182BFFFFFFFFFF021833FFFFFFFFFF02183BFFFF8B
:20004000FFFFFF021843FFFFFFFFFF02184BFFFFFFFFFF021853FFFFFFFFFF02185BFFFF10
:20006000FFFFFF021863FFFFFFFFFF02186BFFFFFFFFFF021873BB010689828A83E02250D2
:2000800002E722BBFE02E32289828A83E49322BB010CE58229F582E5833AF583E0225006A3
:2000A000E92582F8E622BBFE06E92582F8E222E58229F582E5833AF583E49322BB01068960
:2000C000828A83F0225002F722BBFE01F322F8BB010DE58229F582E5833AF583E8F0225019
:2000E00006E92582C8F622BBFE05E92582C8F222C5F0F8A3E028F0C5F0F8E58215827002FB
:200100001583E038F022A3F8E0C5F025F0F0E582158270021583E0C838F0E822BB010A89B7
:20012000828A83E0F5F0A3E022500687F009E71922BBFE07E3F5F009E3192289828A83E423
:2001400093F5F074019322BB010A89828A83F0E5F0A3F0225006F709A7F01922BBFE06F3CB
:20016000E5F009F31922EF2BFFEE3AFEED39FDEC38FC22C3EF9BFFEE9AFEED99FDEC98FCFA
:200180002275F008758200EF2FFFEE33FECD33CDCC33CCC58233C5829BED9AEC99E582989E
:2001A000400CF582EE9BFEED9AFDEC99FC0FD5F0D6E4CEFBE4CDFAE4CCF9A88222B800C180
:2001C000B90059BA002DEC8BF084CFCECDFCE5F0CBF97818EF2FFFEE33FEED33FDEC33FC38
:2001E000EB33FB10D703994004EB99FB0FD8E5E4F9FA227818EF2FFFEE33FEED33FDEC33D3
:20020000FCC933C910D7059BE99A4007EC9BFCE99AF90FD8E0E4C9FAE4CCFB2275F010EF2E
:200220002FFFEE33FEED33FDCC33CCC833C810D7079BEC9AE899400AED9BFDEC9AFCE89964
:20024000F80FD5F0DAE4CDFBE4CCFAE4C8F922EF5BFFEE5AFEED59FDEC58FC22EB9FF5F038
:20026000EA9E42F0E99D42F0E89C45F022E8600FECC313FCED13FDEE13FEEF13FFD8F12234
:20028000E8600FEFC333FFEE33FEED33FDEC33FCD8F122E0FCA3E0FDA3E0FEA3E0FF22E080
:2002A000F8A3E0F9A3E0FAA3E0FB22ECF0A3EDF0A3EEF0A3EFF022A8828583F0D083D08265
:2002C0001202CE1202CE1202CE1202CEE473E493A3C583C5F0C583C8C582C8F0A3C583C569
:2002E000F0C583C8C582C822E0FBA3E0FAA3E0F922F8E0FBA3A3E0F925F0F0E58215827072
:20030000021583E0FA38F022EBF0A3EAF0A3E9F022D083D082F8E4937012740193700DA36B
:20032000A393F8740193F5828883E4737402936860EFA3A3A380DF75814B02079BAEFFEE26
:2003400054CFFEEFC454F024804EF5FF2290091151AB9009115193B1A1900915E06F603466
:20036000110F9102EF6004111080F7B11AB1DB9000BAE0FF91E660099009115193781071F8
:200380009A900911719690091191EF900915E0FFB108D322C32251937808516DE4E5C820F5
:2003A000E2FB8FEB229000D151AB9000D57108110F9102EF6004111080F7B11AB1DB900004
:2003C000BAE0FF91E660099000D151937810719A9000D171969000D15193E4801B9000D838
:2003E000D1BB60189000D551E8EA494B60089000D5120E2B8001E4FF719D80E1B126E4FF38
:20040000A10E7F01B10E30021491D8915290092AEFF0B12690092AE020E002C20230021731
:2004200091419000B8EF91F4600BA3E0F46006EF30E702C202B126E4FFB10EA202E433FFE7
:2004400022B1DB7FD7719D7FFF719D91569000B7EFF07FFF719DE5C820E2FBAFEB227F017F
:20046000B10E9009287401F0900928E0602E91D89152900928EFF0B12691419000B8EFF0AC
:20048000B126900928E0540191F460DCA3E0F460D7EF30E7D3E4900928F080CCB1DB7F9FBC
:2004A000719D91529000B991509000BE91509000BFEFF0B10A9000B7E0F4601BA3E0F4609C
:2004C000169000BEE0FD541F240FA3F0EDC413540744809000BEF022B1DB7F05619D7F01D1
:2004E000B10EB1DB7F03719D9000BDE06402225193E4619DF09000B7E0FFF422FFFFFFFF7E
:20050000FFFFFFFFFFFFFFFF719DB126E4FFEFB4010443FE202253FEDF227F01B10ED2028B
:20052000B1DB7F06719D1213E7EF70FA9000BEE0F4600A9009277406F0F17D70FC9000BC5B
:20054000E07111055F04056714056C15057117058130058634058B36059037000005794376
:200560004610854680802F43471080084347208003434780854790801D4348208548A08041
:2005800015434901800D434910800843494080034349808549B0900927740CF0F17D70FC25
:2005A0002290090C51AB110F9102EF6004111080F791DE600990090C51937810719A90094D
:2005C0000C719690090C91EF9152900910EFF0B10A900910E0FF227F01B10E9000BCE07137
:2005E0001105FD04060514060A15060F17061F30062434062936062E37000006175346EF4C
:20060000854680802F5347EF80085347DF800353477F854790801D5348DF8548A0801553F2
:2006200049FE800D5349EF80085349BF800353497F8549B07F0CDFFE22110F9102EF6004CC
:20064000111080F7B11AB1DB7F01719D7F03719DB126E4FFA10E9000DA51AB9000DE7108D7
:20066000110F9102EF6004111080F791DE60099000DA51937810719A9000DA71969000DA48
:2006800091EF9000E1D1BB601291529000DE51E8EF11BC9000DF1212AA80E7B126E4FFA126
:2006A0000E9000B7E020E012B1D77F3D719D7F2A719D7F80719D7FA6B1082274FFF5F03154
:2006C0000645F022900929EFF09000C5E064027022B1D7900929E07FAB60027FB9719DB142
:2006E00026900929E09000C4F070047F1EDFFEE4FFB10E22900000EEF0A3EFF0A351939035
:20070000000851AB900006E0FFA3E090000CCF805D90000C120FDC605BC3EF9440EE940039
:200720004006A37440F0800590000EEFF0F185E0FF120D0DEFF09000085193D15690000E89
:20074000E0FFC390000DE09FF090000CE09400F0900008519F90000EE4FCFDFE31669000C3
:200760000851ABF174F185120C32900000EEF0A3EFF0809D900000E0FEA3E0FF229009276B
:20078000E014F0E0227B017A00790F90000E22110F9102EF6004111080F72275FF03759EEB
:2007A000029017FAE493F53C75FF02E5E654036003020B5D753CDE753DAD753EBE753FEF87
:2007C000C2AF75FF0275E404F5E47546FF7547FF7548FF7549FF7542FF7543FF7544FF7574
:2007E00045FF75FF0253E6BF1212CD1210D4120FE3EF64016003020B5490180893FE74018E
:2008000093FF9000ADEEF0A3EFF0F5828E83E493F540740193F541740293F54A740393F5F0
:200820004B740493F530740593F531740693F532740793F533C201EF4E7002212BEFF4FF01
:20084000EEF44F7002212BE540454AFEE541454BFFE5304EFEE5314FFFE5324EFEE5334FB3
:200860004E7002212BE54BF4FFE54AF4FEE541F4FDE540F44EFEED4FFFE531F4FDE530F461
:200880004EFEEF4DFFE533F4FDE532F44EFEEF4D4E7002212B7F0312033DE53324FFFFE536
:2008A00032B124640370247F0212033DE53124FFFFE530B124B402137F0112033DE54B2452
:2008C000FFFFE54AB124B40102D20120015D7F0112033DB1459000E8E54AF0A3E54BF07F6D
:2008E0000F7E1D91A57F02B13A9000E8E530F0E53191A37F03B13A9000E8E532F0E5339150
:20090000A37F0112033D900922E0FEA3E0FF7BFF7A187900E425419000E9F0E54034E8903E
:2009200000E891A44EC37001D39201300109B19AEF6401600261549000ADE0FEA3E0F582AD
:200940008E83740C93F53A740D93F53B9000961202937160900079B181FD9000AF7188EF03
:200960002408FFE43E71727B007A007938B10D7402F0120656C200D3900078E09539900034
:2009800077E09538400241639000AF12029FC000C001C002C003AE38AF39E4FCFDC006C024
:2009A00007900077E0FEA3E0FBAA06E4F9F8D007D006120173D003D002D001D00012016656
:2009C000716090007B120293EF24F2FFEE34FFB14C9000AFB1D4400241639000AF120293E2
:2009E0007A00799FB10B740EF01206569000ABE0F536A3E0F5379000A1E0F54AA3E0F54BC1
:200A0000A3E0F530A3E0F531A3E0F532A3E0F533900092120293EF24FFFFEE347F71727161
:200A200060AE4AAF4BE4FCFD9000AF71881205A1EF6401702E71667160AE30AF31E4FCFD62
:200A40009000AF71881205A1BF021871667160AE32AF33E4FCFD9000AF71881205A1BF03D4
:200A600002D200200002615030010EE53B65377004E53A6536700261507B017A0979227178
:200A80008E4002615090009B1202B700001800717A612A7440D395345002613F90007B9173
:200AA000B3EE34F8B14C9000AF12029FD312025C4002613F90009B1202937B007AF879011C
:200AC0007800C312025C40779000AF1202930B7A0179009000E17408F0A3E4F0120656E429
:200AE000F535FB91DFAF34B156E535C39408502091DDE5357F00FEEF2400F974013EFA7B55
:200B00000190090BE535F0AD34121330053580D990009B91B3EE3408717290009B1202ABF7
:200B20009000AF91B3EE340871727160E4FB7A08F9F890009B1202931201BD8F3441937455
:200B400040D39534400A91DDAF34B156053480EFE4FFB1DBE4F53CF53DF53EF53F02180038
:200B60009000AF0202AB9000AF120293E42FFFEE3480FEE43DFDE43CFC22900079E0FEA309
:200B8000E0FFE4FCFD90009612029F02016690091F120308717AEF2408FFE43E71727A00FE
:200BA000797FB10B7402F012065690007FB181FD90009271887B017A007984B10D740EF031
:200BC000120656900092716991C2900086B12D7F0F7E1D91C8B114C006C00791B0E43E919C
:200BE000BA900088B12DD007D00691C8B114C006C00791B0EE348091BA90008AB12DD007F0
:200C0000D00691C8B114C006C007717A91C2900085E02400FE900084E034E8900006F0A3C5
:200C2000CEF0D007D00691C812011C45F0C37001D322E0FD9000E8E4F0A3EDF09000E3EE59
:200C4000F0A3EFF0A31203089000E81206BB604A9000E5D12B9000EAF07D80ED60EA919A33
:200C6000EE7C0030E7027C019000EAE05D7B0060027B01EB6CFCEF25E0FFEE339000E3F09A
:200C8000A3EFF0AF04EF600C9000E3E06410F0A3E06421F0EDC313FD80C19000E3E0FEA320
:200CA000E0FF22A3F0913C900922EEF0A3EFF022900092120293E42FFF22FEED3401FDE498
:200CC0003CFC9000020202AB1206F490091F1202E8EE8FF012014790091F0202E87B007A7B
:200CE00000793CB17A75FF03120076F5D375FF03900001B11B900002B11B900003B11B7547
:200D0000D40175FF03E5D55402FF227B019000E1E4F0A32212011CFFAEF02212008FF5D379
:200D200075FF0322347F8F82F583E49322E0FFA3E0900006CFF0A3EFF02212033D900922DD
:200D4000E0FEA3E0FF7BFF7A80790022FEED34FFFDEC34FFFC2275FF03EF543F4480F5D149
:200D6000E5D520E20AE5D520E005E5D530E1F1E5D55403FF75FF0375D50575FF0375D4029A
:200D800022E0FEA3E0FFE4FC227F0F7E1D91349000EF1202E89000F28132E4900926F0900E
:200DA000009AE06020B1CB70087FFF7E77FDFC800CD11B50107FFF7EFF7D017C001205A154
:200DC000900926EFF0900926E0FF22E4FFFE7D02FC90007B12029FC302025C900924EFF0DC
:200DE000E4A3F090009AE06021B1CB7008D1107E777D00800AD11B5011D1107EFF7D017C7B
:200E00000012034DE433900925F0900925E0FF22900924E0900915F07FFF2290007B1202F2
:200E200093E4FBFA7904F8D302025CE475F0011202F1020076B17A75FF03E5D5F45402FF32
:200E4000229000FCD15CC0079000FC1202E89000FFE0FFB10DEFF0D007020656120308E427
:200E6000FCFD22900902D15CC0079009021202E8900905F1D0F0D00790004F1202AB9000DD
:200E800053120308E4900076F0D3900057E0941E900056E094004001227B017A00795890A8
:200EA0000056E0FFA3E09000E1CFF0A3EFF090004F1202931206569000531202E8E94A6062
:200EC0000F900076E0F58275830012008FFF80027F00900076E02458F582E43400F583E0C4
:200EE0006F6002C322900076E004FFF0D3900057E09F900056E0940050BD229000C6120237
:200F0000AB9000CA1203081214389000CDF1D0F09000C6120293D1785002E1C59000C1E0D4
:200F200024FFFF9000C0E034FFFEE4FCFD9000C612029F12024F9000CFEEF0A3EFF04E6078
:200F40003BF1C7C39000C1E09FFF9000C0E09EFE9000CFF0A3EFF09000CDE0FCA3E0FDD3E3
:200F60009FEC9E5006A3ECF0A3EDF01213F3E94A6004F1C780427E007F00803C9000CDF1C3
:200F8000DC60409000C0E0FCA3E0FDD3EF9DEE9C400A9000CFECF0A3EDF0800D9000CDE071
:200FA000FFA3E0A3CFF0A3EFF01213F3E94A6004F1C780047E007F009000CBEE8FF0120009
:200FC000F080B9D322C3229000CFE0FEA3E0FF22E0FFA3E0900056CFF0A3EF22E0FEA3E011
:200FE000FF4E22E490009AF07B017A007981121378900083E0FBB411229000961202B70031
:201000000078009000921202B7000060009000777418F0A3E4F0A3F0A380277412D39B50F0
:20102000279000961202B7000200009000921202B700020000E4900077F0A3F0A37418F01A
:20104000A3E4F090009A04F090009AE0FB6017E4FFFE7D02FC900083E024EFF9F812028098
:2010600090007B1202ABAF032275FF03E4F59751B1E59720E1FB75FF03AF9922900916EFF2
:20108000F0A3EDF0A3120308900917E06045901215E06012900916E02410FF1169900918F5
:2010A0001202E8EF8017900916E0640190091870071202E8748080051202E874FF1200BCE0
:2010C00090091951AA900917E014F0900916E004F080B5227B017A0079BC7F0351917A00EC
:2010E00079C57F0851917A0079C27D027F09117C7B017A0079C07D027F0B117C9000C012D9
:201100000FDC6006BEFF1BBFFF189000C5E024FD600304700451A080099000C0E4F0A374EA
:2011200040F09000C5E024FD60030470089000BD7403F080069000BD7402F09000BCE0121F
:201140000311115E04116914117115117917118F30119734119F3611A7370000118475FFB8
:20116000015342EF8542FD804775FF015343EF800E75FF015343DF800675FF0153437F8558
:2011800043C9802C75FF015344DF8544CA802175FF015345FE801675FF015345EF800E75D8
:2011A000FF015345BF800675FF0153457F8545CB1205267F11518BE4FF1206C412045E90C5
:2011C00000BA7402F09000BEE0247F60090470165198740A80071206A151987458F090004F
:2011E000BD7403F051A09000BFE0F4600241889000C2E0FEA3E0FF64104E70069000BF74DF
:201200000EF0EF64204E70069000BF740FF0EF64404E70069000BF7410F0EF64804E700626
:201220009000BF7411F0E4B5070AEEB401069000BF7412F0E4B5070AEEB402069000BF74BB
:2012400013F0E4B5070AEEB404069000BF7414F0E4B5070AEEB408069000BF7415F0E4B5B3
:20126000070AEEB410069000BF7416F0E4B5070AEEB420069000BF7417F0E4B5070AEEB454
:2012800040069000BF7418F0020639EF4420F5FE227D01117C7B01227F10518B9000BA2214
:2012A0009000C07401F0A3E4F022E475F0010200F075FF038F9875FF032275FF03759701E9
:2012C00051B1E59720E1FB75FF03AF992290091B7410F090091BE0FFD3947F503D1169907B
:2012E000091CEFF090091BE0B410067E1D7F0F800890091DE0FEA3E0FF7B017A09791C90A1
:2013000000E8E4F0A304F0120C3C90091DEEF0A3EFF090091BE004F080B990091DE0700241
:20132000A3E07F0070027F01901215EFF024FF2275FF03ACD5EC20E13C75FF03ED543FF5D1
:20134000D175FF03E9F5D375FF03EA540FFF90090BE0C4547044804FF5D2E5D520E205E545
:20136000D530E0F6E5D55401FC75FF0343D40275FF0375D505AF04229000B9E01200BC90D5
:2013800000BEE09000011200CE9000BFE09000020200CEE4FCFD0205A1AB05E4FCFD900902
:2013A00015EBF002034D9000F5120E5CC0079000F51202E89000F8E0FFA3E09000CDCFF09C
:2013C000A3EFF0D007020EFBEFB40109D2AD75FF0143AE4022C2AD75FF0153AEBF22E5C842
:2013E0005402FF75C80222E5C85404FF22E5C85401FF229000CA1202E89000CFE0FFA3E0D7
:201400009000D8CFF0A3EFF09000C61202931203A59000CFE0FEA3E0FFC39000CEE09FF01D
:201420009000CDE09EF09000C612029FE4FCFD1201669000C61202AB9000CA0202E8FFFF29
:20144000FFFFFFFFFFFFFFFFFFFFFFFFFFFFFFFFFFFFFFFFFFFFFFFFFFFFFFFFFFFFFFFFAC
:20146000FFFFFFFFFFFFFFFFFFFFFFFFFFFFFFFFFFFFFFFFFFFFFFFFFFFFFFFFFFFFFFFF8C
:20148000FFFFFFFFFFFFFFFFFFFFFFFFFFFFFFFFFFFFFFFFFFFFFFFFFFFFFFFFFFFFFFFF6C
:2014A000FFFFFFFFFFFFFFFFFFFFFFFFFFFFFFFFFFFFFFFFFFFFFFFFFFFFFFFFFFFFFFFF4C
:2014C000FFFFFFFFFFFFFFFFFFFFFFFFFFFFFFFFFFFFFFFFFFFFFFFFFFFFFFFFFFFFFFFF2C
:2014E000FFFFFFFFFFFFFFFFFFFFFFFFFFFFFFFFFFFFFFFFFFFFFFFFFFFFFFFFFFFFFFFF0C
:20150000FFFFFFFFFFFFFFFFFFFFFFFFFFFFFFFFFFFFFFFFFFFFFFFFFFFFFFFFFFFFFFFFEB
:20152000FFFFFFFFFFFFFFFFFFFFFFFFFFFFFFFFFFFFFFFFFFFFFFFFFFFFFFFFFFFFFFFFCB
:20154000FFFFFFFFFFFFFFFFFFFFFFFFFFFFFFFFFFFFFFFFFFFFFFFFFFFFFFFFFFFFFFFFAB
:20156000FFFFFFFFFFFFFFFFFFFFFFFFFFFFFFFFFFFFFFFFFFFFFFFFFFFFFFFFFFFFFFFF8B
:20158000FFFFFFFFFFFFFFFFFFFFFFFFFFFFFFFFFFFFFFFFFFFFFFFFFFFFFFFFFFFFFFFF6B
:2015A000FFFFFFFFFFFFFFFFFFFFFFFFFFFFFFFFFFFFFFFFFFFFFFFFFFFFFFFFFFFFFFFF4B
:2015C000FFFFFFFFFFFFFFFFFFFFFFFFFFFFFFFFFFFFFFFFFFFFFFFFFFFFFFFFFFFFFFFF2B
:2015E000FFFFFFFFFFFFFFFFFFFFFFFFFFFFFFFFFFFFFFFFFFFFFFFFFFFFFFFFFFFFFFFF0B
:20160000FFFFFFFFFFFFFFFFFFFFFFFFFFFFFFFFFFFFFFFFFFFFFFFFFFFFFFFFFFFFFFFFEA
:20162000FFFFFFFFFFFFFFFFFFFFFFFFFFFFFFFFFFFFFFFFFFFFFFFFFFFFFFFFFFFFFFFFCA
:20164000FFFFFFFFFFFFFFFFFFFFFFFFFFFFFFFFFFFFFFFFFFFFFFFFFFFFFFFFFFFFFFFFAA
:20166000FFFFFFFFFFFFFFFFFFFFFFFFFFFFFFFFFFFFFFFFFFFFFFFFFFFFFFFFFFFFFFFF8A
:20168000FFFFFFFFFFFFFFFFFFFFFFFFFFFFFFFFFFFFFFFFFFFFFFFFFFFFFFFFFFFFFFFF6A
:2016A000FFFFFFFFFFFFFFFFFFFFFFFFFFFFFFFFFFFFFFFFFFFFFFFFFFFFFFFFFFFFFFFF4A
:2016C000FFFFFFFFFFFFFFFFFFFFFFFFFFFFFFFFFFFFFFFFFFFFFFFFFFFFFFFFFFFFFFFF2A
:2016E000FFFFFFFFFFFFFFFFFFFFFFFFFFFFFFFFFFFFFFFFFFFFFFFFFFFFFFFFFFFFFFFF0A
:20170000FFFFFFFFFFFFFFFFFFFFFFFFFFFFFFFFFFFFFFFFFFFFFFFFFFFFFFFFFFFFFFFFE9
:20172000FFFFFFFFFFFFFFFFFFFFFFFFFFFFFFFFFFFFFFFFFFFFFFFFFFFFFFFFFFFFFFFFC9
:20174000FFFFFFFFFFFFFFFFFFFFFFFFFFFFFFFFFFFFFFFFFFFFFFFFFFFFFFFFFFFFFFFFA9
:20176000FFFFFFFFFFFFFFFFFFFFFFFFFFFFFFFFFFFFFFFFFFFFFFFFFFFFFFFFFFFFFFFF89
:20178000FFFFFFFFFFFFFFFFFFFFFFFFFFFFFFFFFFFFFFFFFFFFFFFFFFFFFFFFFFFFFFFF69
:2017A000FFFFFFFFFFFFFFFFFFFFFFFFFFFFFFFFFFFFFFFFFFFFFFFFFFFFFFFFFFFFFFFF49
:2017C000FFFFFFFFFFFFFFFFFFFFFFFFFFFFFFFFFFFFFFFFFFFFFFFFFFFFFFFFFFFFFFFF29
:2017E000FFFFFFFFFFFFFFFFFFFFFFFFFFFFFFFFFFFFFFFFFFFFFFFFFFFF0426FFFEFFFFDE
:20180000021EF71958195D227FB8FF026A285A2D5761766520342E353400FF0269EA1A75F6
:201820001A7AFF026A2D1B511B56FF025137EF90183793901900730A20364CE560FF22EF98
:20184000F56022822D1C1613111010024CBE1C871C8CFF026A32C2D5E830E70FB2D5E4C325
:201860009BFBE49AFAE499F9E498F8EC30E717B2D512188C122997E4C39BFBE49AFAE49915
:20188000F9E498F8800312299730D50DE4C39FFFE49EFEE49DFDE49CFC22789CE4F6D8FDD0
:2018A0009000007F007E10E4F0A3DFFCDEFA904FFFA3E583C394204011FEAF829020000EC3
:2018C0000FE48002F0A3DFFCDEFA121920021F0922323F241E16110E0B09070504030201A4
:2018E000F0C8A791776760463835323024222014000101020203030404050506060707FFF4
:20190000C0607419C0E0C082C08375600AE5FF54CF4490F5FF22C0607419C0E0C082C08353
:20192000756020E5FF54CF4490F5FF22C0607419C0E0C082C083756036E5FF54CF44A0F504
:20194000FF22C0607419C0E0C082C08375604CE5FF54CF44B0F5FF22908003211690820BFB
:20196000211690823C21169080D7211690A39B211690A3B32116908251211690A3DA21168D
:201980009081E121169081E421169081D621169081EB2116908A26211690A93F2116908269
:2019A00015211690ACE4211690AD4F211690B374211690B216211690BBA0211690BC8C2129
:2019C0001690AC87211690A88D211690C17B211690A3FC211690C57B211690C5B1211690BE
:2019E000C644211690C790211690BFEB211690C96D211690AC01211690CAFF211690CAB20A
:201A0000211690CACD211690CA11211690CB14211690B67D211690CC41211690CC5B21162D
:201A2000908278211690ACEC211690C668211690C5C92116909467211690CC8D2116908248
:201A400092211690CB3C211690CB7E21169082D9211690CF8F211690CE9A211690C6E02112
:201A60001690C4AE211690C95F211690C8B9211690C90F211690D187211690ABB721169069
:201A8000D6EA212C908006212C90A01D212C90E7C4212C909FFB212C90D807212C90A07DD4
:201AA000212C90E7DD212C90E7DE212C90E7E4212C90CB2D212C90B038212C90E7F0212CA0
:201AC00090E7F8212C90E880212C90AFEF212C90C309212C90E925212C90E93E212C90A6BC
:201AE00057212C90E2A2212C90E283212C90E2B4212C90E16C212C909146212C90E96F2145
:201B00002C90B8EC212C90D9C7212C90EA0D212C909126212C9090E7212C90EAA2212C90E6
:201B2000EC7A212C90EC8B212C90EC21212C90EB9D212C90EA10212C90AD87212C90ECB338
:201B4000212C90ECBD212C90AF69212C90ECC3212C90C2D4212C90ECC9212C90B8D8212CBF
:201B600090BFD0212C90AFE1212C90A99B212C90ED3A212C90D9AC212C90EE4B212C90DB84
:201B80001C212C90EE90212C90E5C2212C90EEEF212C90F196212C90D60A212C90E3252169
:201BA0002C90D659212C90B9FE212C90EDF9212C90F1C9212C90F1FB212C90A5FC212C9028
:201BC000A63E212C90BFE1212C90F298212C90BFD3212C90F2A1212C90F2E4212C90D59366
:201BE000212C90A647212C90D57B212C90D572212C90F38E212C90F3B7212C90F3BD212C0B
:201C000090D5CF212C90F45C212C90DFCD212C90DFF6212C90E01F212C90C5EE212C90F5EA
:201C20002C212C90CC62212C90CBCD212C90CD99212C90E0FD212C90CD0D212C90E008215E
:201C40002C90F572212C90E108212C90F573212C90E19F212C90E296212C90CDC6212C9057
:201C6000C314212C90CDD6212C90F596212C90F5E5212C90B096212C90BC19212C90A9D6BD
:201C8000212C90CA26212C90C2F4212C90E146212C90EF59212C90EDDC212C9097802142BE
:201CA0009098B021429098B921429098C221429098D721429098C62142909759214290A88A
:201CC000F4214290A91C214290A9CE214290AA38214290AA73214290AB41214290AADE218E
:201CE0004290AEBC214290AE5B21429086F42142908ABC21429089E2214290B0F32142901F
:201D00008D922142908D5E214290B1202142908DCF2142908039214290B134214290879520
:201D20002142909CEF214290AD9D214290A145214290A074214290A868214290B5482142B2
:201D400090B5502142908F942142908E0621429097832142908FA12142908F97214290967F
:201D6000CA21429096CD2142909756214290B75D214290B760214290B76321429098FB219E
:201D800042908D51214290B877214290B925214290B928214290B92B214290B92E21429028
:201DA000A5182142908E1A2142909BFA214290906E21429081A4214290BA96214290A576E9
:201DC000214290BB42214290A365214290A4F92142908E092142909074214290992C2142EC
:201DE00090C07421429098E0214290AB5D214290ABAB214290C4612142908AFC2142909656
:201E00009F2142908AEE21429081A9214290C77A21429090432142908B572142909A4221DC
:201E20004290B14F21429087E62142908CEB214290A87E2142908076214290808521429019
:201E40008C03214290C82D214290C89D214290C8E4214290C989214290800021429098DAF7
:201E6000214290CC71214290C7AA214290A57E214290CC8E214290C0B6214290C2F32142F7
:201E800000902D8AE47E0193700122A3FF543F30E509541FFEE493A360010ECF54E0B4E08E
:201EA0003AEFFAEEF9E493FBA3E493FEA3E493FFA3E493FDC083C082C001C002C006C007C9
:201EC000121985D007D006D002D001D082D083A30FEF70010EDADAD9D880A954C025E06036
:201EE000105005A3DFFD809CA3A3A3DFFDDEFB8093A3A3DFFD808D75819C75FF03759E02E4
:201F0000121920023A440218D0902D8AE47E019360F4A3FF543F30E509541FFEE493A3603D
:201F2000010ECF54E0B4E00EEFFAEEF9A3A3A3A3DAFDD9FB80D654C025E0604B5026E493DF
:201F4000A3F85407240CC8C333C4540F4420C8834004F456800146F6DFE480B0010204087A
:201F600010204080E493A3FAE493A3F8E493A3C8C582C8CAC583CAF0A3C8C582C8CAC58302
:201F8000CADFE9DEE78085E493A3F8E493A34003F68001F208DFF4021F0C5E86725985735E
:201FA000718480303170987A5AEF5E86725985737184803031707A5AEF5E98845AEF5E8629
:201FC00072845985737180303170987A1DBD1DC21DC71DCC1DD611224488012B77012B7926
:201FE000012B7A012B7C012B7D0201020101010204081019A319B219B719BC19C119CBFFDB
:20200000DFFE22A2AF92D5C2AF11FEEF31353182EC31353182ED3135318211FE74014F3172
:202020003531827980800631B431E5F709DBF831B431F4F7512DA2D592AF22A2AF92D5C298
:20204000AF11FEEF31353182EC31353182ED313531827980E73135318209DBF8512DA2D5E5
:2020600092AF22A2AF92D5C2AF11FEEF31353182ED3135318211FE74014F313531827980D2
:20208000800631B431E5F709DBF831B431F4F7512DA2D592AF22A2AF92D5C2AF11FEEF313B
:2020A000353182ED313531827980E73135318209DBF8512DA2D592AF22A2AF92D5C2AF11CB
:2020C000FE74014F313531827980800631B431E5F709DDF831B431F4F7512DA2D592AF227D
:2020E000A2AF92D5C2AF11FEEF313531827980E73135318209DDF8512DA2D592AF2275FFFD
:20210000014353024357028553FD75FF014353014357018553FD5164C28175FF015353FD29
:202120008553FDC2815164C28075FF015353FE8553FDC280227808C28075FF015353FE85DE
:2021400053FDC28033400FC28175FF015353FD8553FDC281800C75FF01435302435702853E
:2021600053FD516475FF014353014357018553FD5164D8C3C28075FF015353FE8553FDC29C
:20218000802275FF014353024357028553FD75FF014353014357018553FD5164A281724A0F
:2021A000924A00000000C28075FF015353FE8553FDC2802275FF014353024357028553FD31
:2021C000780875FF014353014357018553FD5164A28133C28075FF015353FE8553FDC28086
:2021E0005164D8DE22C28175FF015353FD8553FDC281800E75FF014353024357028553FDD3
:20220000516475FF014353014357018553FD5164C28075FF015353FE8553FDC2805164C2EF
:202220008175FF015353FD8553FDC28122C28175FF015353FD8553FDC281C28075FF01534E
:2022400053FE8553FDC280516475FF014353014357018553FD516475FF0143530243570287
:202260008553FD2200000000000000000000000000000022022635E86480F8E933E833608D
:20228000110460F0ED33EC337009E8FCE9FDEAFEEBFF220460DED3EB9FEA9EE99DE8C2E725
:2022A0008CF0C2F795F0400CE8CCF8E9CDF9EACEFAEBCFFB12260085D0F05804700320D515
:2022C000B3E80470075002B2D502263F92D5EC0460F7E4CCC0E0C398F8603B941860084068
:2022E0000DD0E0FB022617E4FBFAC9FC8028E830E406E4C9FBE4CAFCE830E305E4C9CACB0B
:20230000FCE854076010F8C3E913F9EA13FAEB13FBEC13FCD8F130F52FC3E49CFCEF9BFF8E
:20232000EE9AFEED99FDD0E0FBEF4E4D4C701222DB0302263CEC2CFCEF33FFEE33FEED33B9
:20234000FDED30E7EB022617EF2BFFEE3AFEED39FDD0E0FB50130BBB000302263FED13FDB5
:20236000EE13FEEF13FFEC13FC022617EC4D6011E8497017ED33EC3304600DE4FCFFFEFD37
:2023800022E933E8330470F802263512260058046009E4CC2481500628500902263F284023
:2023A0000302263CC0E0EB4A7044B98006D0E0FB02262BEF4E701CBD8008EBFFEAFEE9FD2A
:2023C00080EBE98DF0A4FEE5F0022455E9CDF9EAFEEBFFEF89F0A4FCE5F0CE89F0A42EFFC4
:2023E000E435F0CD89F0A42DFEE435F08067EF4E7005BD80D780C3EF8BF0A4ACF0EE8BF0B3
:20240000A42CFCE435F0F8EF8AF0A42CE5F038FCE433CB8DF0A42CFCE5F03BF8EE8AF0A46E
:202420002CFCE5F038F8E433CF89F0A42CFCE5F038CF3400CE89F0A42FFFE5F03EFEE433F3
:20244000C98DF0A42EFEE5F039CD8AF0A42FFFE5F03EFEE43DFD33D0E0FB50070BBB000F06
:2024600002263FEC2CFCEF33FFEE33FEED33FD02261702263FEC5D046005E8590470030272
:202480002635122600580460F6EC4860F2EC7004FDFEFF22C860DB2481C85009C39860026F
:2024A000500602263C9850CAF582E9294B4A7005AB8202262B75F0007C1A7880C3EF9BEE6F
:2024C0009AED99400DC3EF9BFFEE9AFEED99FDE842F0DC23ACF0D0E0FFD0E0FED0E0FDABD0
:2024E0008220E7101BEB60BAEC2CFCEF33FFEE33FEED33FD022617E803F830E705C0F0754F
:20250000F000EF2FFFEE33FEED33FD40B830E7C280AA74F8CC6480CCC86480C8F582046040
:202520004FC3EB9FF5F0EA9E42F0E99D42F0E89C45F0603C501DE5825FFFE582D313CB5BAE
:20254000CBF42B5582FB50280ABA002409B9002008801DE5825BFBE582D313CF5FCFF4C31A
:20256000132F5582FF50090EBE00050DBD00010CC3EB9FF5F0EA9E42F0E99D42F0E89C45D5
:20258000F06007CC4820E701B3EC2275F020800E75F010800575F0087D007E007F0033924E
:2025A000D530D503122A43EC334010EF33FFEE33FEED33FDEC33FCD5F0ED22E5F0247EA2EB
:2025C000D513CC92E7CDCEFF22EDD2E7CD33EC3392D524814006E4FFFEFDFC22FCE4CFCE82
:2025E000CDCC24E0501174FF80EDC3CC13CCCD13CDCE13CECF13CF0470F030D5DE022A43CC
:20260000E9D2E7C933E833F892D5EDD2E7CD33EC33FC5002B2D522EC30E7100FBF000C0EEB
:20262000BE00080DBD00040BEB6014A2D5EB13FCED92E7FD2274FFFCFDFEFF22E480F8A21D
:20264000D574FF13FC7D80E480EFE709F608DFFA8046E709F208DFFA803E88828C83E709BC
:20266000F0A3DFFA8032E309F608DFFA8078E309F208DFFA807088828C83E309F0A3DFFA61
:20268000806489828A83E0A3F608DFFA805889828A83E0A3F208DFFA804C80D280FA80C6C0
:2026A00080D4806980F28033801080A680EA809A80A880DA80E280CA803389828A83ECFA9F
:2026C000E493A3C8C582C8CCC583CCF0A3C8C582C8CCC583CCDFE9DEE7800D89828A83E4C9
:2026E00093A3F608DFF9ECFAA9F0EDFB2289828A83ECFAE0A3C8C582C8CCC583CCF0A3C8B2
:20270000C582C8CCC583CCDFEADEE880DB89828A83E493A3F208DFF980CC88F0EF60010EBA
:202720004E60C388F0ED2402B4040050B9F582EB2402B4040050AF232345822390269A73AA
:20274000BB010689828A83E0225002E722BBFE02E32289828A83E49322BB010CE58229F584
:2027600082E5833AF583E0225006E92582F8E622BBFE06E92582F8E222E58229F582E5831B
:202780003AF583E49322BB010989828A83F8E028F022500327F722BBFE05F8E328F3228A0C
:2027A000838982F8E4932822BB010689828A83F0225002F722BBFE01F322F8BB010DE58284
:2027C00029F582E5833AF583E8F0225006E92582C8F622BBFE05E92582C8F222EF8DF0A445
:2027E000A8F0CF8CF0A428CE8DF0A42EFE22BC000BBE0029EF8DF084FFADF022E4CCF87574
:20280000F008EF2FFFEE33FEEC33FCEE9DEC984005FCEE9DFE0FD5F0E9E4CEFD22EDF8F528
:20282000F0EE8420D21CFEADF075F008EF2FFFED33FD4007985006D5F0F222C398FD0FD59C
:20284000F0EA22C5F0F8A3E028F0C5F0F8E582158270021583E038F022A3F8E0C5F025F010
:20286000F0E582158270021583E0C838F0E822BB010A89828A83E0F5F0A3E022500687F071
:2028800009E71922BBFE07E3F5F009E3192289828A83E493F5F074019322BB0110E5822964
:2028A000F582E5833AF583E0F5F0A3E0225009E92582F886F008E622BBFE0AE92582F8E289
:2028C000F5F008E222E5832AF583E993F5F0A3E99322BB010A89828A83F0E5F0A3F02250B3
:2028E00006F709A7F01922BBFE06F3E5F009F31922EF2BFFEE3AFEED39FDEC38FC22C3EFEC
:202900009BFFEE9AFEED99FDEC98FC22E88FF0A4CC8BF0A42CFCE98EF0A42CFC8AF0EDA416
:202920002CFCEA8EF0A4CDA8F08BF0A42DCC3825F0FDE98FF0A42CCD35F0FCEB8EF0A4FE6B
:20294000A9F0EB8FF0A4CFC5F02ECD39FEE43CFCEAA42DCE35F0FDE43CFC2275F0087582B1
:2029600000EF2FFFEE33FECD33CDCC33CCC58233C5829BED9AEC99E58298400CF582EE9BD0
:20298000FEED9AFDEC99FC0FD5F0D6E4CEFBE4CDFAE4CCF9A88222B800C1B90059BA002DCB
:2029A000EC8BF084CFCECDFCE5F0CBF97818EF2FFFEE33FEED33FDEC33FCEB33FB10D70326
:2029C000994004EB99FB0FD8E5E4F9FA227818EF2FFFEE33FEED33FDEC33FCC933C910D726
:2029E000059BE99A4007EC9BFCE99AF90FD8E0E4C9FAE4CCFB2275F010EF2FFFEE33FEED95
:202A000033FDCC33CCC833C810D7079BEC9AE899400AED9BFDEC9AFCE899F80FD5F0DAE40C
:202A2000CDFBE4CCFAE4C8F922EF5BFFEE5AFEED59FDEC58FC22EF4BFFEE4AFEED49FDEC9B
:202A400048FC22C3E49FFFE49EFEE49DFDE49CFC22EB9FF5F0EA9E42F0E99D42F0EC64807E
:202A6000C864809845F022EB9FF5F0EA9E42F0E99D42F0E89C45F022E8600FECC313FCEDFD
:202A800013FDEE13FEEF13FFD8F122E86010ECA2E713FCED13FDEE13FEEF13FFD8F022E890
:202AA000600FEFC333FFEE33FEED33FDEC33FCD8F122BB010789828A83022B1C5005E9F827
:202AC000022D10BBFE05E9F8022D1C89828A83022B28BB010DE58229F582E5833AF5830274
:202AE0002B1C5007E92582F8022D10BBFE07E92582F8022D1CE58229F582E5833AF58302BB
:202B00002B28BB010789828A83022BA95005E9F8022D42BBFE05E9F8022D4E22E0FCA3E06D
:202B2000FDA3E0FEA3E0FF22E493FC740193FD740293FE740393FF22E0F8A3E0F9A3E0FAF8
:202B4000A3E0FB22E493F8740193F9740293FA740393FB22BB010789828A83022B385005A6
:202B6000E9F8022D28BBFE05E9F8022D3589828A83022B447401FF3395E0FEFDFCA3A3A395
:202B8000E0CF2FF0E582158270021583E0CE3EF0E582158270021583E0CD3DF0E5821582A3
:202BA00070021583E0CC3CF022ECF0A3EDF0A3EEF0A3EFF022A8828583F0D083D082122B8C
:202BC000CC122BCC122BCC122BCCE473E493A3C583C5F0C583C8C582C8F0A3C583C5F0C52C
:202BE00083C8C582C822A42582F582E5F03583F58322E0FBA3E0FAA3E0F922F8E0FBA3A361
:202C0000E0F925F0F0E582158270021583E0FA38F022EBF0A3EAF0A3E9F022BB01078982E6
:202C20008A83022BF25005E9F8022D5ABBFE05E9F8022D6C89828A83022D7EBB011A8982C9
:202C40008A83D0F0D0E0F8D0E0F9D0E0FAD0E0FBE8C0E0C0F0022C125016E9F8D083D0829D
:202C6000D0E0F9D0E0FAD0E0FBC082C083022D63BBFE16E9F8D083D082D0E0F9D0E0FAD0C7
:202C8000E0FBC082C083022D7522D083D082F8E4937012740193700DA3A393F8740193F525
:202CA000828883E4737402936860EFA3A3A380DFD083D082F8E4937012740193700DA3A3C7
:202CC00093F8740193F5828883E473740293B5F0067403936860E9A3A3A3A380D88A83899F
:202CE00082E473EC8EF0A4CCC5F0CCCDF8EFA4CEC5F02DFDE43CFCE8A42EC8C5F03DFDE42A
:202D00003CFCEFA4FFE5F028FEE43DFDE43CFC22E6FC08E6FD08E6FE08E6FF22E2FC08E202
:202D2000FD08E2FE08E2FF22E6FB08E6F908E6FA08E6CBF822E2FB08E2F908E2FA08E2CBC7
:202D4000F822ECF608EDF608EEF608EFF622ECF208EDF208EEF208EFF222E6FB08E6FA0808
:202D6000E6F922EBF608EAF608E9F622E2FB08E2FA08E2F922EBF208EAF208E9F222E4937D
:202D8000FB740193FA740293F922412CF8004102B20041349A00C151C13941041506011428
:202DA000004104140141041301C12F011A00011700C130C132C12641253300412599FF419A
:202DC000259100C125C12441259A0041259B0041259201C12841253200C135C12C013000E3
:202DE000C129C12A4331DA0000004131D9004131DD000120004129AB00413152FF41314D5E
:202E0000FFC1B6C13841314C00C137412C8A00412C9300412C9700412C9600412C9200414F
:202E20002C8D00422C8B0000422C990000C15F412C0500412C0C28412C1200422C030000B6
:202E4000412C1100412C0200412C080043330500000041330800432B40000000412B4500BA
:202E6000C160492B364C6966656C696E65004E2B462001300380033105710584075A0141F6
:202E800034BE00413207004132050041320600412AFE00412B1332C161422AFA0000422BC6
:202EA0000F0000422B0303E8422AFF0000422B110000412B0600412DD000412DCE00413260
:202EC0009CFF41329AFF4132990A42320C0000C14041320E004133C60A4133C7004133C878
:202EE000004129E21E4229F100004229EC00004229EA0FFF4229FC00004129E6004229E34D
:202F000002034129E9004121C3004122840041207000C142C14141206EFF412026004121C0
:202F2000C402412210FF4121FE0041271300412765FF6050271401030300000505001C3763
:202F40000501001C37000701000002030300000201001C370306001C370301001C370101FD
:202F6000001C370102020000000804000004040500000004051C410005000000FF03FE0075
:202F800000FFFFFE1C325927690207D01C3C0307D01C3C0500141C3C0107D01C3C0407D01F
:202FA0001C3C412680FF4126FCFF41270FFF412710FF41270E004127030041270D004327C4
:202FC0000800000041270C004326FD0000004127020041270B00422711000042270400004B
:202FE0004227060000609625E900000000000000000000000000000000000000000000005E
:203000000000000000000000000000000000000000000000000000000000000000000000B0
:20302000000000000000000000000000000000000000000000000000000000000000000090
:20304000000000000000000000000000000000000000000000000000000000000000000070
:2030600000000000000000000000000000000000000000000000000000000000000000410F
:2030800032A10041329F0041329E00C144C14341329DFF4132A00041318D00502A96A81F39
:2030A000FF7F3F3F079FFFFFFFFFFF1313FF502AA6000300000001000100808080808303A3
:2030C00000C114C10FC111C10CC116C108C10AC10BC109C11AC118C11BC10EC115C110C1E4
:2030E00012C10DC117C11C412B7600412B7500412B8100412B8000412B8900C119C193413B
:203100002B8300422B730000412B7000422EA1F448C1784430E6000000004230EA000041C8
:2031200030ED00442B2600000000442B2A00000000442B2E00000000442B320000000042C4
:203140002B170000422B1900006040296400405734039874BC002B0A480000AFBB000A22D1
:203160008D017E7248038E3A947B6B01000025352F0218A9FC001B199A00006DAC000660AE
:203180000600C30DEE0388EE64DB8F01004134060041340700413405004132D8004132D61E
:2031A0000044292300000000603029290000177000003A980000753000009C400000C350B0
:2031C0000000EA60000111700001388000015F90000186A00001ADB00001D4C041292800CE
:2031E000E00C0261250086000000020064010E043641341400423415000000000000000012
:2032000000000000000000000000001C4B1C501C551C5A1C5F1C641C691C6E980500000E3F
:2032200008F8000E0F3800000000020C00003F3F3F040404F1000000000E1000000E100035
:20324000000E10010204080000000000000000000000000000000000000019F819FD1A02FE
:203260001A071A0C1A111A1B1A2AC5C30014012204881220488091008000020406071C0AD4
:203280001C0F1C141C191C1E1C231C281C2D1B331B381B3D1B421B471C321C371C3C1C418A
:2032A0001C461AB61ABB1AC01AC51ACF1AE31AE81AED1B061B0B1B101B1A1B1F1B241BAB79
:2032C0001BB01BB51BC41BCE1BDD1DEF1DF400000B69400000001A521A5C1B4C1B921BF1C0
:2032E0001D271E1C7F01918A902CF0E0122C8A330B04331314331815331D17332D30333209
:2033000034333736333C37000033255357EF855780802F5358EF80085358DF800353587FDE
:20332000855890801D5359DF8559A08015535AFE800D535AEF8008535ABF8003535A7F85E9
:203340005AB07F0CDFFE227F01918A9034977401F0903497E0602ED1A771E3903497EFF0AF
:2033600091FB71D2902CECEFF091FB903497E05401F19160DCA3E0F460D7EF30E7D3E49022
:203380003497F080CC51E87F9F71CA71E3902CED71E1902CF271E1902CF3EFF09186902CE4
:2033A000EBE0F4601BA3E0F46016902CF2E0FD541F240FA3F0EDC41354074480902CF2F0A1
:2033C00022122B1C7808122A78E4E5C820E2FB8FEB2251E87FD771CA7FFF71CA71E7902C7D
:2033E000EBEFF07FFF71CAE5C820E2FBAFEB227F01918A304F14D1A771E3903499EFF0911D
:20340000FB903499E020E002C24F304F1771D2902CECEFF191600BA3E0F46006EF30E7021F
:20342000C24F91FBE4FF918AA24FE433FF22902F5F122BA9902F63122C12D16271EFEF6070
:2034400004D14E80F7D131600A902F5F122B1C781071C6902F5F71C1902F5FD1A1902F662B
:20346000F18345F0601871E3902F63122BF2EF1227A8902F64E475F00112284380DF91FBE1
:20348000E4FF800671CA91FBE4FFEFB4010443FE202253FEDF22902F56122BA9902F5A1276
:2034A0002C12D16271EFEF6004D14E80F7D14291FB51E8902CEEE0FFD139600A902F561256
:2034C0002B1C781071C6902F5671C1902F56122B1CE4801D902F5DF18345F06018902F5A5A
:2034E000F13B600B902F5AE4F1EF1227408001E4FF71CA80DF91FBE4FF808FF1DBEF70FB3D
:20350000902CF2E0F4600A9034967406F0F14270FC902CF0E0122C8A353404353814353DA8
:2035200015354217355230355734355C363561370000354AF18A802F435810800843582046
:203540008003435880855890801D4359208559A08015435A01800D435A108008435A408037
:2035600003435A80855AB0903496740CF0F14270FC2290325C122BA990325C122B1CB1C025
:20358000903260E06F6037D16271EFEF6004D14E80F7D14291FB51E8902CEEE0FFD13960DC
:2035A0000A90325C122B1C781071C690325C71C190325CD1A1903260E0FF9184D322C322FB
:2035C000903257122BA9D16271EFEF6004D14E80F7D131600A903257122B1C781071C69043
:2035E000325771C1903257D1A171E390325BEFF0918690325BE0FF22D16271EFEF6004D149
:203600004E80F7D14291FB51E87F0171CA7F0371CA91FBE4FF818A902CEBE020E01251E44D
:203620007F3D71CA7F2A71CA7F8071CA7FA69184227F01918A51E87F0371CA902CF1E06497
:2036400002227F01918AD24F51E87F0661CAE51530E20EE51520E509E51530E0047F01F100
:203660009D2275FF02E5E430E10675E40675E40322903498EFF0902CF9E06402702251E45B
:20368000903498E07FAB60027FB971CA91FB903498E0902CF8F070047F1EDFFEE4FF918A97
:2036A00022122B1CE461CA51E87F0561CA902888EEF0A3F1E1902890122BA990288EE0FFB2
:2036C000A3E0902894CF8064902894F1E76063C3EF9440EE94004006A37440F080059028AF
:2036E00096EFF0F14AFF1247EAEFF0902890122B1C912E902896E0FFC3902895E09FF0905D
:203700002894E09400F0902890122B38902896E4FCFDFE1228F1902890122BA9F132F14AEC
:20372000FDF1F5EDF01219F3902888EEF0A3EFF08096902888E0FEA3E0FF22122BF2EA49D1
:203740004B22903496E014F0E0227B017A287997902896E022D16271EFEF6004D14E80F7C2
:2037600022EF75F004A4FDACF0E075F011A42408F9740035F0FAE92DF9EA3CFEAF01E4FC1D
:20378000FDA1C074FFF5F002285943571085578022F0902CEBE0FFF422EFF07F01EF600A84
:2037A000123CB9E4FD125AFC8009F1B612606FE433FF227F0122F1C1EF7005123CCB80F629
:2037C00022E4FF123E7454F0FEBE40037F00220FEFB403EF7F0122E4FF818AE5C85404FF04
:2037E00022EFF0A3022B1CE0FEA3E0FF4E22E475F001022BFB90308BE4F0A322902CEDE02D
:203800001227A8902CF2E09000011227BA902CF3E09000020227BA7A2C79F07F03F1487A6D
:203820002C79F97D017F081219E97B017A2C79F67D027F0931D97B017A2C79F47D027F0B97
:2038400031D9902CF41237E76006BEFF1BBFFF18902CF9E024FD600304700431DC800990B3
:203860002CF4E4F0A37440F0902CF9E024FD6003047008902CF17403F08006902CF17402BB
:20388000F0902CF0E0122C8A38A40438A91438B11538B91738CF3038D73438DF3638E737EC
:2038A000000038C412703F804775FF015354EF800E75FF015354DF800675FF0153547F854A
:2038C00054C9802C75FF015355DF8555CA802175FF015356FE801675FF015356EF800E751C
:2038E000FF015356BF800675FF0153567F8556CB1234FB7F1131CBE4FF1236711233479012
:203900002CEE7402F0902CF2E0247F600904701631D1740A800712361731D17458F0902C23
:20392000F17403F031DC902CF3E0F4600221C8902CF6E0FEA3E0FF64104E7006902CF374E7
:203940000EF0EF64204E7006902CF3740FF0EF64404E7006902CF37410F0EF64804E7006FF
:20396000902CF37411F0E4B5070AEEB40106902CF37412F0E4B5070AEEB40206902CF37434
:2039800013F0E4B5070AEEB40406902CF37414F0E4B5070AEEB40806902CF37415F0E4B58C
:2039A000070AEEB41006902CF37416F0E4B5070AEEB42006902CF37417F0E4B5070AEEB42D
:2039C0004006902CF37418F00235F8EF4420F5FE227F1031CB902CEE220219E9902CF47460
:2039E00001F0A3E4F022111712618D1219D512526B9002B3E064017F0060027F01121A3EF1
:203A0000121A431219AD126E7F7A0279B6121976F140FE4FFDA3E0FC4DFDA3E0FB4D600B9A
:203A2000EE5FFFEC5FFFEB5FF47002D1D290121CE0FF540324B6F582E43402F583E06F90E7
:203A400002B1F02275FF0275E404E4F5E4C22E75FF02901215E0603CE5E65403640170344D
:203A6000121A66125B924020901222E0600DE014F0700812189AE4901215F0901215E07092
:203A800002610B124B02610B12189AD22EE4901215F0807712189A1261EC9002B3EFF090D0
:203AA0001200E0B47A14901214E0B49C0D9002B3E0FF64056004EFB4032EE49002BCF09068
:203AC00002BCE0FFC394405013E42FF582E43412F583E4F09002BCE004F080E390120074B4
:203AE0007AF0901214749CF01219EE7B017A1279107D017F011219E97A1279117F21F148FB
:203B00007A1279127D017F221219E9121A6B1261EC1250D49002B3EFF01219DF12508F9080
:203B200002B3E0FFB40602800C302E047F0280059002B3E0FF121A7FEF24FFB3925175FF56
:203B40000253E6BF9002B3E064016005E4901215F012511B121A7031E6901215E0700F208A
:203B6000510C121A847B017A25799D121A2090121DE030E0028003302E057F0112379DD2EC
:203B8000AF305177125250124B98121AA21219E440F29002B2E06041D189EF700512583B9E
:203BA0004037E51470FCE51520E50312606F121971EF70FAF1DB50051261AF50057F011227
:203BC00036719002B2E0B40204E4FF80099002B2E0B403057F01124B1F91CBE51530E1A40D
:203BE000D1BD4002E4F0E51520E50791B97D01125AFC9002BC91BCD19A8089125022124FF7
:203C0000F05002D1D29002B2E0605D902533E07057D189EF700512583B404DE51470FCE515
:203C20001520E50A90121DE020E00312606F121971EF70FAF1DB50051261AF50057F0112BE
:203C400036719002B2E0B40203E480189002B2E0B403047F01800E9002B2E0B4050A9012EE
:203C6000157401F0FF124B1F125250124B98121A989002B0E0700491CB801512505EFF900C
:203C800002B0E0FEC3EF9EC394064002E4F0D2AD121807E51530E119D1BD4002E4F0E5155F
:203CA00020E50791B97D01125AFC9002BC91BCD19A121A5712507D61FB9002B4E075F0AACF
:203CC0009002BF122BE6AF82AE8322E4900449F1D375F0E5E55ED17854F064407002C13343
:203CE000E4FE75F0E5EED178FDB4010990044AEEF0E4FF8022EDB4020B90044AE0B4FF0442
:203D0000EEF0800E75F0E5EED17854F0FDBD80027F010EEEB403CBEF600690044A74FFF0A2
:203D200090044AE0F47002C1331258615002C133E51530E102C13390044AE0900004D1A294
:203D400030E40E75F0E5EF900006122BE6E0549FF090044AE09000B8D1A2540FFEBE050EE1
:203D600075F0E5EF9000BC122BE6E030E11A90044AE0900003D1B420E52775F0E5EF9000C5
:203D8000BB122BE6E0B4FF1990044AE0D1ABC083C082E04401FFA3E0D082D083CFF0A3EF3D
:203DA000F090044AE0FDD1ABE0FEA3E0FFC006C007ED75F0E5A424B3F9740035F0FA7B0135
:203DC000C002C00190044AE09000D9D1B490042CF0EF75F0E5A42409F9740035F0FAA312B9
:203DE0002C1290044AE0FF75F0E59000B2122BE6E0900430F075F0E5EF9000DA122BE6E0DF
:203E0000900431F0E4A3F0D001D002D007D006125888501F90044AE0F55E75F0E5D17844DD
:203E200040F09004497401F09022A2F0E51530E202D322E51530E2357F04D18075F0E5E585
:203E40005ED178FF54F06440701E75F0E5E55EF1CDEF540FF075F0E5E55ED1784480F0E54A
:203E60005EF1521219A880057F0112379D900449E024FF2275F0E5EF900001122BE6E022F2
:203E8000C2AFEFF45215D2AF22E4FFD17460037F00220FEFB403F47F01229002B5E0FD0227
:203EA00019D0FF75F0E5122BE6E02275F0E5900005022BE6FF75F0E5122BE6E0227F02D1F9
:203EC000809002B4E09002BCF09002B404F0C3940222E4FF12379DEF603BF116F11D90024F
:203EE000B6E0C394C040F37B017A0279B8F11DF1405FFFA3E05FFFA3E05FF460EA90121D5C
:203F0000E030E0057F0112379DE490121CF0F116E0FD12197B227B017A0279B62290043FEC
:203F2000122C12C252E4FF12379DBF010B90043F122BF212460C92527F0112379DA25222C3
:203F40009002B6E0FFA3E0227B017D011219E97B012275F0E5A42401F9740035F0FA7B01CE
:203F600022900447EFF1D3FEFD75F0E5EDD178FC700C900448E0B4FF02EDF00F8006EC309F
:203F8000E0027E010DEDB403E0900447E06401600DEFC394025007EE7004A374FFF0900407
:203FA00048E0FFC39403501EEFF1527DE5E4FF12196C900447E04410FFA3E0FE75F0E5F13A
:203FC000CDEFF0EE808C7B007A00790022900001022BE6F0A374FFF0E4FF22900001740106
:203FE00093B40007E493B41802C322D322FEAF01E4FDAB05E4FCFD903260EBF0023572FE94
:20400000AF017B007A0079929031BA7404F09031B7112DC0079031B7122BF29031BAE0FF8F
:20402000902F66E4F0A3EFF0D00702342E122C12E4FCFD2290310BE4F0A37405F090310806
:20404000112DC007903108122BF290310BF1F1D0073149122C12902E4C122BF2902E4F12BC
:204060004A00902E48122B1CF1FE50022107902CF5E024FFFF902CF4E034FFFEE4FCFD904D
:204080002E48126F72902E51EEF0A3EFF04E60373127902CF5E09FFF902CF4E09EFE902EF2
:2040A00051F0A3EFF0902E4F31539FEC9E5003126EDE31093131122BF2E94A6004315A8065
:2040C0003C7E007F008036902E4F1237E76036902CF43153EF9DEE9C400A902E51ECF0A3FC
:2040E000EDF08006902E4F126FCA31093131122BF2E94A6004315A80047E007F00902E4D8C
:20410000126E9880C2D322C322902E4C122BF2902E51E0FFA3E0902F5DCFF0A3EFF0902EA6
:2041200048122B1C123496902E51E0FEA3E0FFC322902E50E09FF0902E4FE09EF0902E48B0
:20414000122B38E4FCFD1228F1902E48122BA9902E4C22E0FCA3E0FDD322902E51E0FEA3E9
:20416000E0FF22902F4C122C12902F4FECF0A3EDF0902A50E07002412F513570511270499B
:20418000513E504A902F4F713FFDA35153E4FB7A18F9F8C3122A675035902F51122B38C35F
:2041A000E49BFF74189AFEE499FDE498FCE4902F4D8FF0122843C3902F50E09FF0902F4F30
:2041C000E09400F0902F51122BB500001800126FFC5153126F3E902F4F713FFD1228F1900B
:2041E0002A31F15A4044126D4D4025E4127049513E4037902F4FE0FEA3E0FBE49BFF74A0B3
:204200009EFE74019400FDE49400FCA3513E501A126FFC5153C007902F4C122BF2902F4FBC
:20422000F1F1D0071151E4338001E4902F55F0902F55E0FF22E4FFFE7D02FC902A31122B4A
:2042400038C3022A67902A2FE0FEA3E0FFE4FCFD902A4C122B380228F1903423122C12518C
:2042600045EF2408717CFC7A2A7935F1E87402F012342E902A35713FFD902A4851537A2A0A
:20428000793AF1E8740EF012342E7147FFEE3480717F7129902A3C71507F0F7E1D713090B8
:2042A0003423122BF212286FFFAEF0C006C0077147FFE43E7122902A3E7150D007D0067162
:2042C00030903423122BF212286FFFAEF0C006C0077147FFEE34807122902A407150D00747
:2042E000D0067130903423122BF212286FFFAEF0C006C0075145712A902A3BE02400FE90A6
:204300002A3AE034E890288EF0A3CEF0D007D0067130903423122BF212286F45F0C3700130
:20432000D322FEED3401FDE43CFC90288A022BA91236AD903423122BF2EE8FF00228D2E0E3
:20434000FEA3E0FFE4FC22902A48122B1CE42F22E0FFA3E090288ECFF0A3EFF022FF7E04BF
:20436000FDFCE0F8A3E0F9A3E0FAA3E0FB12290CE47B7DFAF9F8122997EF2401FFE43EFEE2
:20438000E43DFDE43C22902B8B122BA975FF0243E180F183126628902BA0122BB5002DC623
:2043A000C0E4F5FFF5A490120EF0A3F0902B9B7402F0F1D7FFF595EF14601314601C240260
:2043C0007027902B8B91F9F161902B978016902B8F91F9F161902B98800A902B9391F9F170
:2043E00061902B99E0902BA4F0126652902BA4E0700FF5FFF59675FF0175D70975F4188007
:204400005B90120EE004F0902B9BE01270AD902BA091F9FF902B9C1266FFC3122A67500AE6
:20442000902B9C91F9FFA3122BA9902BA4E0FF1264A9902B9AE0FFA3E0FDA25792551265AB
:20444000D6A391F9FF90326C122BA9902B9BE0FF12665F902B9B91EBFF12631A1270646094
:204460000261B27402F0F1D7F595E5F454077017902BA0715DF1CB902B9B1266EF122BA92C
:20448000EB91ECFF12631A12706470DA75FF03759580126FC2400343F420A25792561265C0
:2044A00008902BA091F92420FFEE344E717FFCE4FB7A04F9F8716DF1CBC2541263AFE4F575
:2044C000FFE5BD54F84404F5BD9012137401F07E127F01E4FDEF2DF582E43EF583E0FC9051
:2044E0001213E02CF00DEDB412EB22E025E025E02401F582E43412F583E0FCA3E0FDA3E0C7
:20450000FEA3E022903122124B48F09031287401F0C258124EAEF1785005E5FC20E6F7F17D
:20452000A0BF0108E4F5FC75FC408007F1A0BF0202D322125FE0903123E0FF12689775FF24
:204540000153D5DF53FAFB903122E0FF125B76903123E0903122B4080991EB2452717CFC1F
:20456000800391EBFF12631A903124E0FF1268F075FF0175FF03759B04124EAE75FC42E5DA
:20458000FC20E104F17840F4903125E0F075FF03E59B20E704F17840F4E59B20E70C75FF21
:2045A00003759B1FF183D258804FF1681262E2903123E0FD90120FE05D701C903122E0FFB0
:2045C000F16812670B90120FE0FF903123E0FEEF4E90120FF091C9125D897B017A317926B6
:2045E000125E99500FC3903127E09420903126E0940340E6F168126356F16F305802A10BD6
:20460000903128E0B40103D38001C322902E53126311902E59122BB500000001902E5D74B0
:2046200001F0F5FFE5D554C070051258805002C322E4F5FF53967F75FF0175D5047F3FFE72
:20464000124FE5F1D143D508E4F5FF5394FBF5FF53847FF5FF7598FF902E57E5F4F075F4E7
:204660009C75FF01A3E5E4F075E4257B017A2E795D1262E2902E5DE064016002E138F5FF30
:20468000902E567414F0902E5991F9FF7801122A9F902E59122BA9E5A730E1FB43A7029089
:2046A0002E5991F9FFE5A730E005E47B018002E4FBFAF9F8EF4BFFEE4AFEED49FDEC48FCCB
:2046C000902E59122BA9902E56E014F070B8902E5991F9FF7810122A787B6D7A4E79C6787A
:2046E0004112290CEF2439FFEE3430717FFCE4FBFA7901F8122997EE547FFEE4FDFC126F6F
:204700007F902E5991F9FFEB6FFFEA6EFEE8CDEFCDCCEECCECFF902E53F1DFEF1227A890A8
:204720002E53F1DF900001ED1227BA90120FE030E606E4F5FF75968075FF01E4F5D5902EC6
:2047400057E0F5F475FF01A3E0F5E41264F7902E5DE0B40103D38001C322122B38D3022A9B
:2047600067FF902B9C022BA97B017A3179282275FF03E59120E7FB2275FF03E591C330E7E4
:2047800001D322E5FA30E1FB75FC8075FF0153D5EFE4F5FC75FC40124FE9E5FC20E6FB22E7
:2047A0007FFA124EEAE5FC30E604F17840F7E5FC30E6037F032275FF01E5D530E6037F0234
:2047C00022E5D57F0030E7027F0122FC7801022A78F16F75FF012275FF03902B9BE022E004
:2047E000FBA3E0FAA3E0F9227B01902F66E4F0A322E0FFA3E0902E4FCFF0A3EFF022902ADD
:2048000005122BA9902A09122C12E4902A2CF0D3902A0DE0941E902A0CE094004001227B9C
:20482000017A2A790E902A0CE0FFA3E0902F66CFF0A3EFF0902A05122B1C12342E902A096F
:20484000122BF2E94A600B902A2CE0F5821183FF80027F00902A2CE0240EF582E4342AF514
:2048600083E06F6002C322902A2CE004FFF0D3902A0DE09F902A0CE0940050C122122BF2B1
:204880001E8E827583000227599030643113E58F20E0FB31B275FF017E10903067117DF509
:2048A00093EE70F67E10903064117DF594EE70F67F0111D031BFEF70FB7E1090306A122B54
:2048C000F21E8E82758300E5931227BAEE70EC22EFB4010221A6319E4406F58F22903251AA
:2048E0003113E58F20E0FB31B275FF01E4FF903251122BF28F821183F5930FEFB410EFE4C6
:20490000FF903254122BF28F821183F5940FEFB410EF22122C1275FF012290306D3113E515
:204920008F20E0FB75FF01538F06319E4402F58F75FF017F1090306D122BF21F8F821183D3
:20494000F59490307331C8E41227BAEF70E73195EA540FFD903073122BF2EAC4F854F0C861
:20496000E9C4540F4854F04DF5923195E9F59875FF01903073122BF2E9F59675FF017599BD
:204980001075FF0175971075FF0143912031A6E58F20E0FB2275FF01903070022BF275FF6D
:2049A00001E58F54F02275FF01E58F54F64401F58F2275FF01538F0675FF01538FF02275C3
:2049C000FF01E58F5401FF22122BF28F82758300229034293113E4FF90342931C8E593120F
:2049E00027BA0FEFB410F12290310F12402DC00790310F122BF29031125100D0070247FEAA
:204A0000E0FFA3E0902A0CCFF0A3EFF022E4F97D0CAC0109EC90180E93FC0FEFAA0670019F
:204A20000E14F5828A83ECF0DDE77F03228F828E83E4F0A37404514074365140A3E4F02216
:204A4000F08F828E83A3A32275FF0275E40475E40175E4022275FF0275E404E4F5E42290F0
:204A600004337148F090121DE05430600671455002C322900433E0B4040BA351C7900433F4
:204A80007403F08025900433E06405701890121DE090043430E50651C77F1F800451CFE4B2
:204AA000FF713D800590043451CF900433E09002B2F0900435E0901222F01257ED9002BDFF
:204AC000EEF0A3EFF0D322E0FB7D017F018006E0FB7D01E4FFEB600875FF0153CDFD80067B
:204AE00075FF0143CD02ED600553FBDF800343FB20EF600775FF0243E1402275FF0253E1D3
:204B0000BF2290121DE07B027D0130E5087F0151D57F1F8006E4FF51D5E4FF713D7F0143D6
:204B2000FB1075FF0243E640EF600D75FF02E5E120E7FB43FB0D800343FB0E80FE75FF02E3
:204B40008FE32280F8A22E22EFF0A3EDF0A3EB22903266EEF0A37148F07FFFA3E0F9E9C350
:204B6000940C5023E9718AE0FCA3E04C7016AF01903266E0FC126F0CA3E0903265F0910E93
:204B8000E904FF220980D722E55D75F007A42432F582E43428F58322900000E06061E01467
:204BA000F0E4F55DE55DC3940C50ED7188E0FEA3E04E6047718891617041E55D9100E0FF50
:204BC000600AF46007E55D9100E014F0E55D9100E06010E55D916CE0FEA3E0FF7188EEF0C0
:204BE000A3EFF09151E0FEA3E04E600C9151E0FEA3E0AA06F9122CDD12364E055D80A522F0
:204C000075F007A42438F582E43428F58322903262ECF0A3EDF0AA07AF03EF70010FEF7521
:204C2000F00AA4FFAEF0EA916CEEF0A3EFF0EA718AEEF0A3EFF0903265E0FFEA9100EFF04D
:204C4000903262E0FEA3E0FFEA9153EEF0A3EFF022E55D75F007A42436F582E43428F583A5
:204C60002274FFF5F012284345F022EF75F007A42434F582E43428F5832291A6500E916BAD
:204C8000E4F0A3F0EF718AE4F0A3F00EAF062291A65010916B126E9E6009EF718AECF0A3F4
:204CA000EDF00EAF0622E4FE1FEFC3940C227E1A7FC07BFF7D6490326A7402F06150C0E0A8
:204CC000C0F0C083C082C0D075D008C0FF1247A08F18E51864027052E51424F8604224075C
:204CE0006002C1159004259161702BAB1CAA1DA91E125AF0AD16AF1F125D64E4FB7D01FFC5
:204D0000125A3675FF0012706D43FA0475FF00D13F751408C11543FA0475FF00D13FC115C7
:204D2000C2EB751400431504C115E51864016002C1151269754002C115E510702B851282C0
:204D4000851183E090044BF0E0FF64556004EFB4540BD22E125060900424F0A1E575100216
:204D600075FF0075D908C115E51064027056D12AE090044BF01268CC1260AA900413EFF0E0
:204D800090044BE0FFD394094025900413E0D39402400CEFD394AA7F0040027F01800D90E6
:204DA000044BE0D394407F0040027F01EF6004D122803290044BE0FFF51675FF008FD975CA
:204DC00010038051E5106403704BD12275FF00900413E0C39403E5D350055402FF80035457
:204DE00001FFEF6004D146802CC259D16A75FF00F1DEF5D1E5D120E0FBC2EB431502751001
:204E000000900413E0B403071516D12AE516F09002B5E516F0D0FFD0D0D082D083D0F0D066
:204E2000E032302E04C22ED1F522E5122407F582E43511F58322125B7643FA04E4F5FF537A
:204E4000D1FD43D10122F1D7F5D1E5D120E0FBE4F5FF75D901900413E07F00B403027F01A8
:204E6000D136D259D16AE4F5102290349BE5F4F0E0547FF5F47F827E00D1B21247785005CE
:204E8000E5FC20E6F630590890349BE04480F5F4D1AE1247785005E5FC20E6F675FF01E5DC
:204EA000D520E702C322E5F4D330E601C3227FE87E03D1B680389032D9EEF0A3EFF07B01E9
:204EC0007A3279DB125E9950149032DBE0FEA3E0FF9032DAE09F9032D9E09E400A9032D94F
:204EE000E0FEA3E0FFF1BA227FC87E00F1BA75FF0343918022C23BE4903378F0C23CA3F08B
:204F0000A3F075FF01E5D520E702C322C25A125EB6203B02E1AA53F4DF903378E0FF125B0A
:204F20007675FF0143D810303C0543F440800353F4BFE4F5FF53F5F0903379E0FAA3E0FB46
:204F4000EA42F5EBF5F6D25A125EB6D1E8E4F5FFE59320E60512477840F3303C5BE5F43020
:204F6000E3047D288010E5F430E2047D288007E5F430E1027D28F1E97F28D1EA124778401C
:204F8000FB7F78D1EA124778502E12691B50F61268F6EFC39D50EE12691B50E9E5F720E58C
:204FA000E4C25A125EB6F1E980DB53F4BF126FC2400643F420125FE0D32275FF03D3EF949D
:204FC00002EE9400400874FE2FFF74FF3EFEEFF592EE540FF59122C259D16AE4F5FFE5D163
:204FE00054FE440222F1BAC1EE75FF03E4F5912290121CE07011123F404FFFA3E04FFFA328
:20500000E04F7003D38001C3229002B1E064AA2411FFF022AE071109EE04FEEF8EF084AFDF
:20502000F02230500C902533E07006FF121A4DC25011360219DA302E241160FF900424E044
:20504000FEEFC39E400AEF9ED394024010C22E22900424E0F42FD394014002C22E22C2AD7A
:20506000902886E0A3E0229002BAE0FCA3E04C700A9002BAEEF0A3EFF0D322C3229002BA2A
:205080001237E76009CAEECAC9EFC9122CDD22E4F557F558F559F55A75FF0185FD5375FF5F
:2050A0000185C95475FF0185CA5575FF0185CB5622EF11B8F0020000901221F090349A221A
:2050C000901221E0FFF4600590349AEFF074FF11B8E0FF22901221E0FE640690349A60048E
:2050E000EFF08008EEF090122174FFF090349AE0FF22EFB40109D2AD75FF0143AE4022C230
:20510000AD75FF0153AEBF2275C80122E5C85402FF75C80222E5C85401FF2275FF02D2ADB0
:20512000D2BD75FF02758E71755B0975FF02E58E546F4480F58E22C0E0C0F0C083C082C073
:20514000D075D008C0FF75FF02E58E30E42C75FF02E58E54EF4410F58E900000E004F0E5FE
:205160005B30E0020531E55B700E755B0990288675F0011228438002155B75FF02E58530D2
:20518000E4043199055CD0FFD0D0D082D083D0F0D0E03275FF0253857F75FF024385102209
:2051A000AB07AA063193ED4C70050DBD00010CD3ED94FFEC9403500AEDF586EC4430F585D2
:2051C0008052D3ED94FCEC940F5017EDAE047802CEC313CE13D8F9AC06F586EC4434F5853D
:2051E0008032D3ED94F0EC943F5016ECC4F854F0C868FCEDC4540F48F586EC4438F5858043
:2052000013EDAE047806CEC313CE13D8F9F586EE443CF58590342C512DD23AE4F55C75FF82
:205220000243854075FF02438580D23922AF03EAF0A3EFF0223193C239E4F55CC23A223007
:20524000390D3193E4F55CD23A75FF0243858022303A10E55C600C155C90342C1237E7600B
:2052600002516422AA06A907022CDDE4F55CC23A22E4FB7D01E490326AF0024B50903114C8
:20528000122C12F1D2125856AE04AF05903119E0FDA3E0FB5175F1D2EF1227A8F1D212274B
:2052A00040B4FF04E41227A8903114122BF2122740FF229031B1EDF09031AE122C12E49012
:2052C00031B3F01227A875FF014353025357FD715F9031B47480F09031B4E0D3940040350B
:2052E0007156714A9031B2E0FF126C579031B3EFF0E47F03714DE58030E10D9031AE51ABA0
:205300009031B4E04F1227A871DA714A9031B4E0C313F080C29031B1E070049193800C75BA
:20532000FF014353025357FD8557808553FD714A715671D175FF014353025357FD715FE4D1
:205340007F14714D9031B3E0FF22E47F01FEFDFC021B9C8553FD75FF014353015357FE8565
:2053600057808553FD2290341DEFF0E4A3F0A37480F090341FE0FFD39400402D90341DE04A
:20538000FEEF5E70049193800C75FF014353025357FD8557808553FD714A715671D1714A3A
:2053A00090341FE0C313F080C975FF014353025357FD8557807153714AE58030E10690344C
:2053C0001E7401F071DAE47F14714D90341EE0FF22E47F05FEFDFC121B9C5357FE855780BB
:2053E00075FF015353FE8553FD2271DA918A8553FD714A7156E47F0A714D75FF01435302A8
:205400005357FD715FF1D8021B9CE49034EDF0FF75FF014353025357FD715F7E80EED39438
:2054200000401671560000E58030E103EF4EFF71DA0000EEC313FE80E4EF1227A8ED7004F8
:205440009193800C75FF014353025357FD8557808553FD7156000071DA000075FF0143539A
:20546000025357FD715F9034EDE0FF2275FF014353025357FD715F714A7156918A8553FD0B
:20548000E47F0A71D4F1D8021B9CE47F01FEFDFC121B9C5357FD85578075FF015353FD2277
:2054A00071DAE4FEEF30E70E75FF014353025357FD855780800291938553FD000000000020
:2054C0000000000000000000000000000000000000000000000000000000000000000000CC
:2054E0000000000000000000000000715600000000000000000000000000000000000000E5
:20550000000000000000000000000000000000000000000000000000000000000071DAEF51
:2055200025E0FF0EEE6408600281A475FF014353025357FD715F00000000000000000000F4
:2055400000000000000000000000000000000000000000000000000000000000000000004B
:20556000000000000000715600000000000000000000000000000000000000000000000064
:20558000000000000000000000000000000000000000000000000000E4FFFEE58030E10BA9
:2055A0000FBF00010EBE02F3BFBCF061DAE4FE7D80EDD394004023ED5F70049193800C753A
:2055C000FF014353025357FD8557808553FD7156000071DAEDC313FD80D775FF0143530225
:2055E0005357FD8557807153E58030E1027E0171DAAF062275FF014353025357FD715F71D6
:20560000DAE4FE0000000000000000000000000000000000000000000000000000000000CE
:2056200000000000000000000000000000000000000000EF25E0FF715600000000000000B0
:2056400000000000000000000000000000000000000000000000000000000000000000004A
:20566000000000000000000000E58030E1010F71DA0EEE6408708C91938553FD00000000FC
:2056800000000000000000000000000000000000000000000000000000000000000000000A
:2056A000000000000000000000000000715600000000000000000000000000000000000023
:2056C00000000000000000000000000000000000000000000000000000000000000061DA8F
:2056E00075FF014353025357FD715F71DAE4FE0000000000000000000000000000000000F9
:2057000000000000000000000000000000000000000000000000000000000000000000EF9A
:2057200025E0FF71560000000000000000000000000000000000000000000000000000009E
:20574000000000000000000000000000000000000000000000E58030E1010F71DA0EEE6418
:2057600008708C75FF014353025357FD715F000000000000000000000000000000000000A1
:20578000000000000000000000000000000000000000000000000000000000000000715642
:2057A0000000000000000000000000000000000000000000000000000000000000000000E9
:2057C0000000000000000000000000000000000061DA903114022BF2E47F0AFEFDFC229183
:2057E0006CE4FF7166EF70047F06716622A2AFE433FFC2AF902886E0FCA3E0FBAA04EF2471
:20580000FF92AFAE02AF032290342EEEF0A3EFF01257ED90342E1241539FEC9E5009C3EF50
:205820009DFFEE9CFE801390342E114DFCED2401FDE43CFCED2FFFEC3EFE229002BDE0FEA8
:20584000A3E0FF1108D3EF94C8EE940022E0FCA3E0F4FDECF422122740FF124C7AE402273C
:20586000A81180500411714003302E03D38001C322E5F754E024FF22C2EBA2ED922DC2ED3D
:20588000E5F4C330E701D322900427126E30C2EBE51460024118E51530E202C322118050BF
:2058A00005C259124E6A124FDBF5D1E5D120E0FBE4F510C22E900428E05407C39403E494A9
:2058C000005022900430E0FF90042CE02FFFE433FED3EF9440EE648094804009431504A20D
:2058E0002D92EDD32290042D122BF2CFE9CF8A118F12900430E0F516AE111262A99004290C
:20590000122BF28B1C8A1D891E90042CE0F51F900427E0FCA3E0FD5460602E900431E0FFB2
:2059200051A55126FB7A00900425E0FEA3E0FF7C007D171227DCEF2BFFEA3EFEEF2414FBE6
:20594000E43EFA7D027F014100900427A3E05407900414F0751408900429122BF251F0906C
:20596000042CE0FFAD16B164900414E0640370277B01FD51235172500A900429F1CBB15135
:20598000122786E4F5FF12706D51262428FBE433FA7D03E4FF8069900414E064027018519F
:2059A00020517240025193B15851262414FBE433FA7D027F018049E4512051724002519314
:2059C000E4F5FF516A44104E7F0560027F0AEF547FFFE5D254804FF5D2E4F5FF43D2805103
:2059E00026FD7C00516A44104E7E0060047F0A80027F05F1D2FEEF2DFBEE3CFA7D017F0140
:205A00001260D9516AFFB1714006A22D92EDC322A22D92EDD2EBD322A22D92EDD2EBC322F6
:205A2000FB7D01FF5136900429122BF2E92407F9E43AFA022740E4F5FF75D102E5D120E017
:205A4000FBE4F5FFF5D1EF6008E4F5FF43D2808006E4F5FF53D27FEB6006E4F5FF43D104A6
:205A6000ED6006E4F5FF43D10822900427E0FEA3E022FF900430E0FD90042CE02DFDE433FE
:205A8000FCED2401FDE43CFCD3EF9DEC6480F874809822900429122BF2E92407F9E43AFAF9
:205AA00074FF02278690043C126EDC751401E4FBFDFF51367B017A04791651F0E4FD7F0280
:205AC000B164B1589004167455F090043CE0900417F09004147402F090043EE09004253051
:205AE000E507E4F0A3743CF022E4F0A374F0F022E4F5FFE9D1F8EA540F42D622900439EEC8
:205B0000F0A3EFF0E514706D11785005C259124E6A900439E0FEA3E08E11F512AE11AF1226
:205B20007DAAD1D7E4F5FF75D901F510E5155421602AE51530E504E4FF7176E490043BF0F1
:205B400090043BE004F0917CEF600990043BE0C3941040EC7F02121AA75315DE900413E0DA
:205B60007F00B403027F01124E36D259124E6AD2EBA22D92ED2275FF01E5D530E602C32289
:205B8000E4F5FF439A80EF1270ADE4F5FF539A7FD3225315FEE51530E5047F017176917C8C
:205BA000EF70FB7F02121AA77F0171EC90044CEFF0BF0202801390044CE0B43311E4F07F3A
:205BC0000171ECBF020D90044C7401F08005E490044CF090044CE0700C11805005C25912CC
:205BE0004E6A12609A90044CE024FF22900445EFF0C25AD1B6D23B900445E0903378F0D2BE
:205C00003CA3E4F0A3740DF0124F02E4900446F01180503E900446E07038E5F754C060F0EB
:205C200091699169900446EFF0BF55129169900446F1D96F90044670147402F080D29004DA
:205C400046E0B454057433F080C69004467401F080BE900446E0B40207C259124E6A8000DB
:205C6000124EF5900446E0FF22E5F720E008E5F754C070F5FF2243F701AFF922E49032E10E
:205C8000F0A304F0E49032E4F0E5FA30E1FB75FF01E5D530E7037F0022E4F5FF75E508F103
:205CA000E0E5D530E61A75FF019032E3E5DAF0E4F5DA75FF01E5D630E3FB9032E47401F055
:205CC00075FF03759B0475FC4175FF03E59B30E7FBE4FB75FF038B95EB1244ECFF12631A4D
:205CE0000BEBB403EE75FF03759580E4F5FF758EC8B18975FF0153D5FB124FE97F14124E56
:205D0000EA1247D143D5049032E4E07009124FE9124EE812476F7B017A3279E2126356901C
:205D200032E2E09032E17006E04404FF8002E0FF9032E1EFF090120EE0B4010675FF014349
:205D4000D81075FF019032E3E0F5DA9032E1E0FF22F9E43AFA740122E4F5FFE5D25480449F
:205D60000AF5D222E4F5FF8FD4F5FFCFEDCF8FD5224315015315DFF101F17A4004E4F514C2
:205D8000225315FB124E39D322E4F5FF75C2E17F1ED16E30E707E4F5FF75C2A122E4F5FF5C
:205DA00075C28122CDEFCDCCEECCD176AB94EF4BD1AECBEFCBFAE59130E71DD179A994E922
:205DC000F582EF4582FFEB2DF582EA3CF583C3EF9582E5F0958340DEE59120E70CCEECCE85
:205DE000CFEDCF124FE512476F229032E9EFF0A312631175FF011247A0EF64016002C3222C
:205E0000E5F430E602C3227FE87E03124FE5D182400122C259124E6A9032E9E0FF7176531F
:205E2000F4DFD259124E6A7F787E00B1A475FF0153E4BFE5E430E7FB1269227F8AD16E3075
:205E4000E6099032EA1247DFE4800B75FF019032EA1247DFE5D91227A875FF0143E440121A
:205E60006FC2400343F420D182400122D322FEB1A490120FE02275FF03AF93EF75F010A4E5
:205E8000FF22E5F730E510E5F754C0700512477840F0124FE9C322D322D176AD94EF4DD1C1
:205EA000AE8FF01228D2E591C330E701D32224FBFFE5F034FF22AFF4EF547FF5F4305A053E
:205EC000EF4480F5F475FF01E5D520E702C322E5F4D330E601C322E4F5FF75D102E5D1206B
:205EE000E0FBE4F5D1F5FFEFD1F8EE540F42D6E4F5FFCFEDCF8FD422F5D7E4F5FF53D6F063
:205F000022EF30E303AF1322AD1B202F04EE30E00BE517C394F05020F14D8018E51A600664
:205F2000FDE4F51A8012E517C394F0500BE517540FFF6004F13BAD07AF052212602BFFC36A
:205F4000940E40027F0DEF9018D293FF22900415E0FDFFC3740E9FFFE49400FEEFC4F854D7
:205F60000FC868FFEEC454F048FEE51754F0C39FEE518C7F005002AF0522900437EFF09059
:205F80000414E024FD6011047007F1C17404F08012F1C17408F0800BE4900438F09004363D
:205FA0007402F07F01121AA7900438E0FF900436E0FDA3E0FBE4903125F012450450E9D337
:205FC000229004387401F090043622122BF2E9240722EF25E0FFEE3322EFF090121CE02248
:205FE00075FF0153D8EF22AF14EFC36001D322EFC3940E5005900415EFF022E517540FFF74
:2060000022E517C394F050205317F012602BFE740FC39F4005EE940E400543170D8003EFDE
:206020004217E517540FFF227F0022E517C4540FFEEF9018F0932E22E51754F0C4540F2FC5
:20604000FFC3941040027F0FEF9018E093FF227E10EE60091EEE9018E093B507F4EEC394DE
:206060000E40027E0DEE9018D293FF22E4F514E51470251258785005C259124E6A119A12D5
:206080004FDBF5D1E5D120E0FB4315205315FEE4F510A22D92EDD322C3221247837F08020B
:2060A0001AA7C2AFEF4215D2AF22EF24FE600C24FE600580007F01227F02227F0322E5155E
:2060C00020E50A124FD7F5D1E5D120E0FBE4F51022900425E0A3E0FF22900442EFF0ED24F4
:2060E000FE60191460262402703BEB2402FFE43AFE7C007D501227DC7D60801E314DC33345
:20610000CE33CED8F9FF7C007D28800E314DC333CE33CED8F9FF7C007D641227EE900443C3
:20612000EEF0A3EFF0900442E03158C083C082122B38900444E02401FF900443E03400FE01
:20614000E4FCFD1228F1D082D083022BA9EB2401FFE43AFEEF78032225E025E02418F58248
:20616000E43404F58322EF3158122B1C022B02E4FFFEFDFC900418318490041C3184900435
:2061800020022BA9122BA9E4FFFEFDFC22E4FF75F0E5EF123FCDE4F00FEFB403F2E4F55E3B
:2061A00022E40227A8122740540F0227A880F67F017E009017FCE4935EFE7401935F4E2498
:2061C000FFB322EF7011ED600775FF0143AE012275FF0153AEFE22EFB40110ED600775FF8C
:2061E0000143AE022275FF0153AEFD2275FF02E5E630E2037F0322E5E630E3037F0022E593
:20620000E630E1037F0422E5E67F0530E0027F0122EF600775FF0253E6BF2275FF0243E657
:206220004022EF14600F146014240270188B8075FF018DFD228B9075FF018DC9228BA07580
:20624000FF018DCA22AF038FB075FF01AF058FCB2290311C122C12EF1460111460182402DC
:20626000701E518BE5805191E5FD801C518BE5905191E5C98012518BE5A05191E5CA800802
:20628000518BE5B05191E5CB0227A890311F022BF21227A875FF0190311C022BF2E4F5FF01
:2062A000AF9122E4F5FFAF9222E4F5FFEFF5D8E4F5FF53D60FEE540FC4F854F0C8E4C45488
:2062C0000F4842D622E4F5FF8FD422E4F5FFE5D1540133333354F8FFE4F5FFE5D354074FCF
:2062E000FF2290337571117F017C127D01E4FEED2EF582E43CF583E02FFF0EEEB412F090DB
:206300001213E06F600A9033751247DFE41227A822EBF0A3EAF0A3E9F0229032DD122BA9CD
:2063200075FF019032DDA3E0FDA3A3E4FFFEE4FC7810122A788FE19032DDA3A3E0FEA3E4CC
:20634000FFE4FDFC7808122A788FE29032DDA3A3A3E0FF8FE322C25375FF03759B1F75FF92
:206360000390120FE0FF20E71BE59A540FC394024012EF4480F0E4F5FF75C2A143FC0475D0
:20638000FF03D253E5FC30E609E59A540FC3940540CCE5FC30E611E41227A875FC80F5FCDD
:2063A00075FC40E5FC20E6FB3053031244C922902BBE122BA9E4F5FF75BB0575BB8575FFEE
:2063C0000175D50220540C7F3FFE124FE512476F125D8975FF0143D520305402817BE4F526
:2063E000FF538EF7438E077D04E4F5FF8DBCF5FF43B102E5B130E2FBE4F5FFAFDFEFFEACC0
:20640000DEECFBEBFFED25E024BCF582E4342BF58391A2F5FFF5FF53B1FD0DEDB40CCA9099
:206420002BBE1244F9FF7809122A78A391A2FDED25E024C6F582E4342BF583E0C313FAA3BC
:20644000E013FB9195E0C313FEA3E0132BFFEE3AFE9195EEF0A3EFF0ED240490120DF0ED67
:20646000C394075016CFEDCF0DEF919612412A902BC3E09F902BC2E09E50B4E4F5FF758E56
:20648000C8F5FF90120DE0F5BCE4F5FF75BB8075FF01F5D522ED25E024C4F582E4342BF58E
:2064A0008322EEF0A3EFF0E422EF30E00E43F401E4F5FF43A404F5FF759624EF30E10E4355
:2064C000F401E4F5FF43A408F5FF759624EF30E20943F402E4F5FF75961EEF30E30943F457
:2064E00004E4F5FF75961075FF01EF5403600475D7122275D72D22E4F5FF7584E6F5FF437D
:206500009404F5FF75981422E4F5FF75933F75FF03759A4091F7E4F5FF759C93F5FF75A1B9
:20652000A3F5FF758531F5FF758628E5FA54304480F5FA75FF0175E74A75FF0275DF4975C9
:20654000FF0143D30475FF0153D367E4F5FF53E6BF75FF0175D825F5FF75B503F5FF75B22C
:2065600015F5FF75BA02F5FF75AFB3F5FF75CD0AF5FF75CB08F5FF75CA12F5FF75BF0EF52A
:20658000FF75CC96F5FFF5BDF5FF75C281F5FF75AEE1F5FF75DA55F5FF75F580F5FF75E913
:2065A00003F5FF75E933F5FF75972A75FF01759B42759CA4759D29759E48759F2475A112B7
:2065C00075A312759AF820560CF5FF43968090120FE04440F022CCEFCCCFEDCF74017E008F
:2065E000C8EFC8088005C333CE33CED8F9FFCDECCDEF5D601B30551875FF0175DCAD75FF29
:206600000175DDCDE4F5FF759A74F5FF7594842275FF0175DC5375FF0175DD33E4F5FF75FC
:206620009A14F5FF7594042275FF01438E1075FF0153DB7F75FF0175D5027F14124EEA1261
:2066400047D1438E1075FF0143DB8075FF01E4F5D52275FF0175E46575FF0175D6472290FD
:20666000326BEFF0E4A312435D1247CB90326BD1EF122BA9901210E0FF64806071EFC394E2
:206680007F5039EBD1F1C083C0821244F9FFEEC0E0EFC0E0901210E075F004A4AEF0FBCA53
:2066A000EECAEA3395E0F9F8D0E0FFD0E0FEC3EF9BFFEE9AFEED99FDEC98802A90326BE0B2
:2066C000D1F1C083C082D1FF901210E0F40475F004A4FFAEF0EE3395E0FDFCEB2FFFEA3E9F
:2066E000FEE93DFDE83CFCD082D083122BA922E0FB25E025E02401F582E43412F58322E087
:20670000F8A3E0F9A3E0FAA3E0FB229032E5EDF0901211E0FEF46006A3E0FDB4FF0C903278
:20672000E77418F0A37413F080089032E7EEF0A3EDF01227406401600302687A9032E5E0A1
:20674000FE64086004EEB404089032E67428F080069032E6743AF0EF1244ECFF122A43E42A
:20676000126F8CEF24D8FFEE343FFEED3493FDEC3416FC7B007A8079037800121856126F76
:206780007F9032E8E0FF9032E7E0C39FFFE49400FEE4FCFD12290CECC0E0EDC0E0EEC0E0C6
:2067A000EFC0E09032E8E0FFE4FCFDFE126F8CD0E0FBD0E0FAD0E0F9D0E0F8EB2FFBEA3EF6
:2067C000FAE93DF9E83CF89032E6E0FFE4FCFDFE12290CEF2454FFEE340B12437FFCE47B19
:2067E000A87A16F9F8121856CBEFCB9032E5E014606314601B24FE600C24FC707DE4F5FF0B
:2068000075CE318006E4F5FF75CE21F5FF8BCF22E4FAE4F5FFEA2440F5CEE4F5FFEAFFC387
:2068200074079FFFE49400FE74432FF58274183EF583E4117B13C39DF5CFE4F5FFEA244855
:20684000F5CEE4F5FFEA901843117B132DF5CF0AEAB408BE22E4F5FF75CE01F5FF8BCFF549
:20686000FF75CE0EF5FFEB25E0F5CFE4F5FF75CE0FF5FFEB75F003A4F5CF229325E0FDE4AC
:2068800033FCEB75F010A4FFAEF01227EECDEFCDEBFFE4C313EF2275FF01E5D530E602C3B9
:2068A0002253FACFEFB4080543FA308012EFB4040543FA208009EFB4020543FA108000D30F
:2068C00022E5F45418131313541FFF22E5F75406FFBF06037F0822E5F75406FFBF04037F64
:2068E0000422E5F75406FFBF02037F02227F012275FF018FDA223122AFD922E4FFE5F75424
:20690000C0600280F175FF01E5D530E30D311B50F411F6EF60EF311B50EB2275FF01E5E4D9
